:020000040800F2
:1080000000800020E98402086D860008718600085F
:1080100075860008798600087D860008000000004B
:108020000000000000000000000000008186000841
:10803000858600080000000089860008398502084E
:108040003985020839850208398502083985020810
:108050003985020839850208398502083985020800
:1080600039850208398502083985020839850208F0
:10807000398502083985020839850208ADAF000844
:1080800039850208398502083985020839850208D0
:1080900039850208398502083985020839850208C0
:1080A00039850208398502083985020839850208B0
:1080B00039850208398502083985020839850208A0
:1080C0003985020839850208398502083985020890
:1080D0003985020839850208398502083985020880
:1080E0003985020839850208398502083985020870
:1080F00039850208398502080000000000000000F0
:1081000000000000000000003985020839850208DF
:1081100000000000000000003985020839850208CF
:10812000398502083985020839850208398502082F
:10813000398502083985020839850208398502081F
:108140003985020800000000000000000000000067
:10815000000000000000000000000000000000001F
:10816000000000000000000039850208398502087F
:10817000398502080000000039850208000000006F
:108180003985020800000000000000000000000027
:1081900010B5054C237833B9044B13B10448AFF341
:1081A00000800123237010BD90000020000000001B
:1081B0009081000808B5064B1BB106480649AFF38D
:1081C00000800648036813B1054B03B1984708BD0A
:1081D0000000000090810008940000209000002022
:1081E00000000000704700BF704700BF30B441F688
:1081F000F07500F5F75441F6B061154A425122601E
:10820000C0F8F02DC0F88C2DC0F8F02CC0F8AC2BC5
:10821000C0F8882AC0F8D029C0F88C28C0F84027B8
:10822000C0F86026C0F8E025C0F8CC25C0F82824A6
:10823000C0F8C422C0F87C22C0F8C021C0F83C219C
:10824000C0F80421C0F8B020026030BC4250704732
:1082500028860208704700BF704700BF704700BF04
:10826000704700BF2DE9F04FC24BC34C4FF48072F2
:1082700087B09A6105468A461FF060FE204602F0EC
:108280006BF92078062824D0BC4991F82160002E93
:1082900040F0BD80BA4E2B4642F2F805CDF800A062
:1082A000B748B849B54A03F0E3FB7659C4F8BC6156
:1082B000B54CE1698B0605D5A78CAF48F9B202F041
:1082C0006BFC2085AB4D4FF480762E8507B0BDE862
:1082D000F08F0AF1FF36BAF1000FE9D0AB4C2268FB
:1082E000029216F0030705F104006FEA02039646B6
:1082F00000F0A580029D4FEA134E4FEA154BA3F103
:10830000881905F1881C012F20F804EC20F802BC24
:1083100006F1FF36A9F508430CF5084E00F10400FC
:1083200000F08D80022F11D04FEA13484FEA1E4112
:10833000A3F188130EF1881420F8048C20F8021C95
:10834000013EA3F5084304F5084E04300EF1881BE6
:108350001F0C4FEA1E42A3F188150BF5084920F8BF
:10836000022C20F8047C013EA5F5084304304A465F
:10837000CDF814A011E028F804EC28F802AC25F898
:10838000049B039F25F802BC049D2CF8047C043E4A
:1083900010302CF8025C23440A447D4F7D4DA3F13C
:1083A000881402F188114FEA1248A4F5084E2744B8
:1083B0000D44AEF1881B3F0C2D0C20F8028C01F50A
:1083C00008484FEA134A03970495ABF5084708F1AC
:1083D000881520F804AC4FEA17494FEA184A05F50A
:1083E000084700F1040800F10C0C6B4B6B4A4FEA94
:1083F0001E4E4FEA174B4546002EBCD1DDF814C087
:10840000674E029B614A06FB0C30106050E7654FD7
:1084100091ED040A384602F07BFC052813D00228AF
:1084200000F0C88004287FF435AF03225E48544E24
:10843000227040F2DC53E066C4F8AC312BE77246A0
:10844000CDF814A0A9E797ED522AD7ED512AF8EEFE
:10845000426AB8EE623AF7EE003A86EE834AB4EE2C
:10846000634AF1EE10FA04D0454E4E4802F03AFC51
:1084700011E7D7F84081424E98F8FE7F42F2F802A9
:10848000B058B842C0F2E18098F8FF3F984200F33C
:10849000DC8000F120014FF05509444F88F8FF1FA0
:1084A00088F8FE9F5CE007F1040B384658F8041B7F
:1084B000CBF30A071FF072FB002F00F0C080584674
:1084C000D8F800100BF104091FF068FBC9F30A008B
:1084D000002800F0AE804846D8F804100BF10807D9
:1084E0001FF05CFBC7F30A03002B00F09C80D8F858
:1084F000081038460BF10C091FF050FBC9F30A01B4
:10850000002900F08A804846D8F80C100BF11007BB
:108510001FF044FBC7F30A02002A78D03846D8F887
:1085200010100BF114091FF039FBC9F30A000028E1
:1085300067D04846D8F814100BF118071FF02EFB2F
:10854000C7F30A03002B56D008F11C08384658F828
:10855000041C1FF023FB16490BF11C078F427DD032
:10856000C7F30A02002A9ED11FF058FA38461FF0BE
:10857000F7FA98E700040048AC000020F8670020F4
:10858000D4030020D067002000480040CC670020C2
:10859000F066EEFE1099110168DE65FE98219A01E1
:1085A0008888880088020020000080BF00700008D2
:1085B0000080000897ED527AD7ED517AB8EE470A5D
:1085C000F8EE670AF7EE001A80EE201A03212170F8
:1085D000B4EE611AF1EE10FA84ED1B1A08D0B5EE74
:1085E000C01AF1EE10FA03D40026C4F8AC6151E6CB
:1085F00040F2DC56F9E71FF011FA38461FF0B0FAE6
:10860000A2E71FF00BFA48461FF0AAFA91E71FF005
:1086100005FA38461FF0A4FA80E71FF0FFF9484634
:108620001FF09EFA6FE71FF0F9F938461FF098FA2D
:108630005DE71FF0F3F948461FF092FA4BE71FF091
:10864000EDF958461FF08CFA39E7032706492770E1
:1086500040F2DC53E166C4F8AC3106E742F2F400C4
:108660000122325401E700BF000080BF704700BF05
:10867000FEE700BFFEE700BFFEE700BFFEE700BF6A
:10868000704700BF704700BF704700BFFEE700BFE4
:1086900010B54FF4004188B04FF000601FF05EFC51
:1086A00045F255501FF03EFC254C02201FF040FCC7
:1086B0004FF480432348079304A906930594049438
:1086C00003F016F8204804F540514FF4805202F0B0
:1086D000CFFA1E480190019C611E0191002CFAD135
:1086E0001B4800F009F94FF4802001211FF046FDDE
:1086F00008A94FF480724FF0010C41F8182D0223A5
:1087000014488DF80CC08DF80D308DF80E408DF8A2
:108710000F401FF077FA0E4B0F481049104A00F037
:10872000EBFD0C220F484BF6803102F01FFC0D4888
:108730000D4902F033FC1FF009FC08B010BD00BF6A
:10874000C8270020D40300208802002040420F00E8
:108750004427002000040048AC000020D06700201F
:10876000F86700207C2600206582000808B5FFF726
:108770008FFFFEE72DE9F84F3A4C3B493B483C4E12
:10878000DFF850B1DFF850A1DFF85091394DDFF834
:108790005081394F22461FF0D1FE224637493848D2
:1087A0001FF0CCFE2246374937481FF0C7FE22464D
:1087B000364937481FF0C2FE2246364936481FF078
:1087C000BDFE2246354936481FF0B8FE354B364AC5
:1087D000C3F82864354EDFF80CC135481A60C3F879
:1087E000B0B0C3F804A141F6F07B03F5F75AC3F823
:1087F0003C91C3F8CC55DFF8F0902E4DC3F8F06CE7
:10880000224641F6B0662C4C2C49C3F8C081C3F80F
:108810007CC2DFF8D880C3F8C472C3F8E005284FE3
:108820002848C3F88C98C3F8AC4BDFF8C490C3F861
:108830008C5D254C254DDFF8BCC0C3F86016C3F82D
:108840004007C3F8D0891846C3F888CAC3F8F07D3A
:108850009C5143F80B50CAF800901D49BDE8F84FF1
:108860001FF06CBE00000020E58100087C2600207F
:1088700008B0030838B0030830AF0308E9810008E6
:1088800078260020558200084427002059820008DD
:10889000AC0000205D820008C867002061820008EB
:1088A00088020020D403002068B0030818B203082F
:1088B000C0AF0308C8B0030890AF0308D8AF0308DF
:1088C000E0B0030820B0030830B20308B0B00308DA
:1088D000ED81000880B0030860AF030878AF03089B
:1088E00040AE030898B00308A8AF030858AE0308C9
:1088F00000B20308F0AF03082DE9F04F044600234F
:1089000080220820FF21DFF848E384F8700084F813
:10891000731084F8722084F8752084F8713084F81C
:10892000743084F87630DEF80080C34DDFF838C349
:10893000DFF860A3DFF86093C0492560C04DC14FE8
:10894000C14EC248C4F804A00022C4F80C90A5622D
:10895000A164DFF848B3A4674FF27F4143F25F5A46
:1089600045F29B3904F17005E045A4F850A0C4F825
:1089700054B0A4F85C902381A382A385E5672761A6
:10898000E761A26162622263E26321842187A4F825
:1089900044106663266483B0E064A06500F0028141
:1089A0001FF03CF8AA481FF0DBF8AA481FF0D8F8DF
:1089B000A9481FF0D5F8A9481FF0D2F8A8481FF021
:1089C000CFF8A8481FF0CCF8D4F87880702508EBD1
:1089D000050B4346ADF8045000219C469F781CF8D7
:1089E000019BDE789CF800A093F804E05A7998790E
:1089F00049441AFA81F117FA81F5083316FA85F716
:108A00001EFA87F612FA86FC13F8019C10FA8CF213
:108A100019FA82F05B4581B2DFD1CD43C24692495B
:108A20008B48ADF806501FF0B9F801998F48904E69
:108A30001FF0B4F85AF8041B8E48C8EB0B08A8F1D5
:108A400004071FF0ABF8D345C7F3820571D0002DA2
:108A500038D0012D2DD0022D25D0032D1DD0042D71
:108A600015D0052D0DD0062D05D030465AF8041B23
:108A7000814E1FF093F830465AF8041B1FF08EF811
:108A8000043630465AF8041B1FF088F80436304686
:108A90005AF8041B1FF082F8043630465AF8041BBB
:108AA0001FF07CF8043630465AF8041B1FF076F8A5
:108AB00004365AF8041B30461FF070F8D34506F10F
:108AC000040636D0D046304658F8041B06F1040997
:108AD0001FF064F8DAF8041048461FF05FF8D8F881
:108AE000041006F108001FF059F8DAF80C1006F12E
:108AF0000C001FF053F8DAF8101006F110001FF008
:108B00004DF8DAF8141006F114001FF047F8DAF8FF
:108B1000181006F118001FF041F80AF1200A5AF85F
:108B2000041C06F11C001FF039F8D34506F120069D
:108B3000C8D1E56F514995F801B095F800A095F8B6
:108B400002C095F803E02F796B79AE79EA794C4849
:108B5000DA44D444E64477443B4433441A44D7438C
:108B60004FF00808ADF80670ADF804801FF016F855
:108B7000019944481FF012F8296843481FF00EF885
:108B8000696842481FF00AF80220A4F8800000201B
:108B900094F87010172902D9172584F8705003B083
:108BA000BDE8F08FBEF80470702F7FF4F9AE314A43
:108BB000934692F802C01BF801AB92F803E09BF8D1
:108BC000008092F80490907956792D49534418FA10
:108BD00083F31CFA83F71EFA87FB083219FA8BFC21
:108BE00016FA8CFA12F8016C10FA8AFE16FA8EF058
:108BF0008A4283B2DCD11649DF43B1F80680BAB2AB
:108C000090457FF4CDAE702220461A491FF0D2FC69
:108C10000122A4F880201E4B4FEA0219002A3FD0FF
:108C20004B44164E1868B0423FD0B4F88020012A59
:108C30003FF4B6AE0120ABE7CDCCCC3CCDCCCC3EA6
:108C4000000080BF000070C2CDCCCCBF9A9919BF84
:108C500000400008004800080050000800580008C4
:108C6000006000080068000843414C4904400008C7
:108C70000C400008084000081040000853544154BC
:108C8000784000087C4000088040000884400008CC
:108C9000684000080AD783BF14AECD4148E1FA3ED0
:108CA0001C4B1D4E1868B042BFD199880829BCD111
:108CB00093F808B093F809A093F80AE093F80BC072
:108CC0001F7B93F80D809A7B93F80F90DE88DA442F
:108CD000D644F4446744B84442444A4482F47F4052
:108CE00080F0FF018E4203F108039ED103CB286080
:108CF0006960B4F880B0094F094E0BF1010A1FFA00
:108D00008AF24FEA021E7744B742A4F8802082D943
:108D10008DE700BF004000085354415478400008DC
:108D2000007000082DE9F04383B007461EF076FE80
:108D30007B481EF015FF7B481EF012FF7A481EF09C
:108D40000FFF7A481EF00CFF79481EF009FF7948A2
:108D50001EF006FFD7F87880702208EB0206434623
:108D6000ADF804200021184693F802E010F8019BAA
:108D7000DD7890F800C01C795A79987949441CFA3A
:108D800081F11EFA81FE083315FA8EF514FA85F486
:108D900012FA84F913F801CC10FA89F21CFA82F065
:108DA000B34281B2DFD1CD43444663495C48ADF85C
:108DB00006501EF0F3FE01996048614D1EF0EEFE74
:108DC000C8EB060854F8041B5E48A8F10403C3F37B
:108DD00082091EF0E3FEB44272D0B9F1000F3ED01A
:108DE000B9F1010F32D0B9F1020F29D0B9F1030F57
:108DF00020D0B9F1040F17D0B9F1050F0ED0B9F199
:108E0000060F05D0284654F8041B4F4D1EF0C6FE31
:108E1000284654F8041B1EF0C1FE0435284654F8B9
:108E2000041B1EF0BBFE0435284654F8041B1EF03C
:108E3000B5FE0435284654F8041B1EF0AFFE043579
:108E4000284654F8041B1EF0A9FE043554F8041BF0
:108E500028461EF0A3FEB44205F1040530D0A0461A
:108E6000284658F8041B05F104091EF097FE6168B6
:108E700048461EF093FED8F8041005F108001EF0D5
:108E80008DFEE16805F10C001EF088FE216905F1F8
:108E900010001EF083FE616905F114001EF07EFED5
:108EA000A16905F118001EF079FE203454F8041C65
:108EB00005F11C001EF072FEB44205F12005CED172
:108EC000FC6F224994F8009094F801E094F8028035
:108ED00094F803C025796679A379E2791C48CE44D9
:108EE000C644E644754435442B441A44D543082609
:108EF000ADF80650ADF804601EF050FE019915481B
:108F00001EF04CFE216814481EF048FE61681348AC
:108F10001EF044FE0220A7F8800003B0BDE8F083F5
:108F200000400008004800080050000800580008F1
:108F3000006000080068000843414C4904400008F4
:108F40000C400008084000081040000853544154E9
:108F5000784000087C4000088040000884400008F9
:108F60002DE9F043B0F88010A74BA84A0746080146
:108F70000344934283B040F2FA801EF04FFDA448B0
:108F80001EF0EEFDA3481EF0EBFDA3481EF0E8FD29
:108F9000A2481EF0E5FDA2481EF0E2FDA1481EF029
:108FA000DFFDD7F87880702108EB0106ADF80410DA
:108FB00043460021184693F802E010F8019BDD7843
:108FC00090F800C01C795A79987949441CFA81F1CB
:108FD0001EFA81FE083315FA8EF514FA85F412FA9A
:108FE00084F913F801CC10FA89F21CFA82F0B3422A
:108FF00081B2DFD1CD4344468B498548ADF8065058
:109000001EF0CCFD01998948894D1EF0C7FDC8EBC3
:10901000060854F8041B8748A8F10403C3F3820927
:109020001EF0BCFDB44272D0B9F1000F3ED0B9F1D0
:10903000010F32D0B9F1020F29D0B9F1030F20D0BE
:10904000B9F1040F17D0B9F1050F0ED0B9F1060F21
:1090500005D0284654F8041B774D1EF09FFD284686
:1090600054F8041B1EF09AFD0435284654F8041BDE
:109070001EF094FD0435284654F8041B1EF08EFDA6
:109080000435284654F8041B1EF088FD0435284694
:1090900054F8041B1EF082FD043554F8041B2846C6
:1090A0001EF07CFDB44205F1040530D0A0462846F0
:1090B00058F8041B05F104091EF070FD616848466C
:1090C0001EF06CFDD8F8041005F108001EF066FDD6
:1090D000E16805F10C001EF061FD216905F1100049
:1090E0001EF05CFD616905F114001EF057FDA169D9
:1090F00005F118001EF052FD203454F8041C05F14F
:109100001C001EF04BFDB44205F12005CED1FC6FD2
:109110004A4994F8009094F801C094F8028094F8B9
:1091200003E025796679A379E2793748CC44C444D1
:10913000E644754435442B441A44D5430826ADF81B
:109140000650ADF804601EF029FD01993C481EF060
:1091500025FD21683B481EF021FD61683A481EF05C
:109160001DFD0220A7F8800003B0BDE8F0831EF0CB
:1091700055FCFC6FB7F8803094F8018094F800C07B
:1091800094F802E0E678257994F80590A279E179DF
:10919000C444E64476443544A9444A441144C8438F
:1091A0000826ADF80600ADF804600BB3013B164885
:1091B0002249254D4FEA031840441EF0EFFC204899
:1091C000019940441EF0EAFC08F1006C0CF5814066
:1091D000454421681EF0E2FC616828461EF0DEFC72
:1091E000B7F88040621CA7F8802003B0BDE8F08388
:1091F000124907480E4D1EF0D1FC0C4801991EF093
:10920000CDFC0C48E5E700BF78400008007000087E
:1092100000400008004800080050000800580008FE
:10922000006000080068000843414C490440000801
:109230000C400008084000081040000853544154F6
:109240007C400008804000088440000810B4084BAF
:10925000044693E8070085B00DF1100C0CE90700F7
:109260000CEB840050F80C0C05B05DF8044B704713
:10927000FC850208D0F88C31C26F93F87010D16170
:1092800093F871C0DFED1B7A07EE10CAB8EE470AFB
:1092900060EE270AC2ED090A93F8721001EE101A67
:1092A000F8EE411A21EEA72A82ED082A93F87320DE
:1092B00002EE902AB8EE623A63EE273AC0ED1E3A0B
:1092C00093F875C004EE10CAF8EE444A24EEA75A8B
:1092D00080ED1C5A93F87010072907D993F876305F
:1092E0001A1C18BF012280F8C0217047012280F8A3
:1092F000C02170470000803B2DE9F04F0446C0F8C4
:109300008020C0F88C3183B0E16704300E4601F054
:1093100081FE04F1340002F0ADF804F1440001F0E4
:1093200081FF04F1640002F09DF9AF4DAF48C4F82D
:10933000D00100234FF03F410922C4F8D411204648
:10934000C4F8C821C4F8CC51A3662370C4F8D8313E
:10935000FFF790FFA64840211EF0C6FD98B9D4F84B
:109360008C7197F87450012D16BF012587F8740091
:1093700087F87450D4F88C01FFF7F2FD012284F8CD
:10938000B92184F8B821311D06F1080804F1740AE6
:1093900004F1700004F1780900250023954A964FE6
:1093A000DFF844B2C4F88CA04FF0804E4FF07E5CE2
:1093B00006F1240AC4F89000C4F8B01006F10C00BD
:1093C00006F12001C4F8B490C4F8D48006F1140961
:1093D00006F110081836C4F8C8C0C4F8ECC0C4F8C8
:1093E0009420C4F8B820C4F89830C4F89C30C4F86D
:1093F000A030C4F8BC30C4F8C030C4F8C430C4F8DD
:10940000CC30C4F8E030C4F8E430C4F8E830C4F834
:10941000F030C4F8A4E0C4F8DCB0C4F8A870C4F814
:10942000D8A0C4F8F80084F888504FF4003084F8CD
:10943000895084F8AC5084F8AD5084F8D05084F84A
:10944000D15084F8F45084F8F550C4F8FC10C4F8F6
:1094500010C1C4F80431C4F80831C4F80C31C4F8A0
:109460001431C4F82421C4F82831C4F82C31C4F8CC
:109470003031C4F834E1C4F84821C4F84C31C4F8A0
:109480005031C4F85431C4F858E1C4F86C21C4F820
:109490007031C4F874310121C4F800B1C4F83871D6
:1094A000C4F85C71C4F8646184F8185184F81951E7
:1094B000C4F8205184F83C5184F83D51C4F844511B
:1094C00084F8605184F86151C4F86851C4F81C9163
:1094D000C4F84081C4F87831C4F87CE1C4F88071E4
:1094E000C4F89051C4F8A8511EF048FE02AA4FF4E7
:1094F00000734FF0904001276946022642F8083D6C
:109500008DF806508DF807508DF804708DF80560C1
:109510001EF078FB04F5DC706FEA000B04F5DD7CCF
:1095200004F2B91AE344E245C4F894510BF007027F
:10953000C4F898512846C4F89C51C4F8A051C4F806
:10954000A451C4F8AC51C4F8B051C4F8B45184F873
:10955000B8513BD01AB3012A1CD0022A17D0032AD3
:1095600012D0042A0DD0052A08D0062A1CBF8AF87A
:10957000005004F5DD7A00250AF8015B00210AF8A5
:10958000011B00230AF8013B00270AF8017B002693
:109590000AF8016B00200AF8010BE24516D0D1460B
:1095A000002209F8012B0AF1080A0AF8072C89F8A9
:1095B00001200AF8052C0AF8042C0AF8032C0AF8F2
:1095C000022C0AF8012CE2451046E8D10025C4F827
:1095D000BC01C4F8C451C4F88451C4F88851E5668C
:1095E00003B0BDE8F08F00BF0AD7233C0000104154
:1095F000000400480AD7A33B000080BFC26FD0F828
:109600008C31D16983F87010C26FDFED197A92ED59
:10961000097A27EE270AFCEEC00A10EE901A83F8AA
:109620007110C26F92ED081A61EE271ABCEEE12AA2
:1096300012EE101A83F87210D0ED1E2A22EEA73A0D
:10964000FCEEC33A13EE90CA83F873C090ED1C4A47
:1096500064EE274ABCEEE45A15EE102A83F8752012
:1096600090F8C01183F87610D0F88C01FFF778BC21
:10967000000080432DE9F843044600F144052846E4
:1096800001F056FED4F8AC2121780132C2F3041364
:109690000F2BC4F8AC2102F00F06C8BFC3F11F03A3
:1096A000072940D8DFE811F0080072025100A3003A
:1096B000CF00C900DA004400D4F88C01E76F90F8BD
:1096C0007480FA69A94FB8F1010CDCF1000E02EACE
:1096D00007075EEB0C01002FC0F24A83B34240F350
:1096E000D581002AB8BF0732D010002940F0C282CD
:1096F000FFF7ACFDD4F8BC619C49804606EA010046
:109700000028C0F27C83002EB8BF07368146F010D7
:10971000FFF79CFD04EB890604EB87047064676C1B
:1097200047EA080060642846BDE8F84301F010BE2F
:10973000B342F8DD4FF47F006064A064E06420650C
:109740006065A065E0652066EDE794ED1E4AF2EEE7
:10975000064A24EE246A5810FDEEC61ADB1011EEFC
:10976000902A002A00F0DA800A2A00F0D082092A22
:1097700000F03A83012A00F03A830026092A26667F
:1097800000F02D83022A00F02D830027092AE765C7
:1097900000F02083032A00F020830021092AA1651C
:1097A00000F01383042A00F013830020092A606567
:1097B00000F00683052A00F006830026092A2665A4
:1097C00000F0F982062A00F0F9820027092AE764EE
:1097D00000F0EC82072A00F0EC820021092AA16443
:1097E00000F0E082082A00F0BF80002230E0D4EDD3
:1097F0001B7AB7EE007AF4EE477AF1EE10FA40F0F9
:10980000BF805B104FF47F4600F06F82012B6664CF
:1098100000F09A82022BA66440F06982002026653F
:10982000E0644FF47F41052B616540F068820023BE
:10983000E1650F46A365276620E1B3427FF773AF6A
:109840004B4B63646FE7B3427FF76DAF4FF47F42DA
:1098500062642846BDE8F84301F07ABD454F4FEAFF
:10986000A22887FB0871A1EBE27909EB490CB3420E
:10987000CCEB080280F21C81002A00F02582012A2C
:1098800000F0B9829F1C07F00F0E4FF47F01764560
:10989000616440F31C8103F1040909F00F0C4FF4DB
:1098A0007F016645A16440F3218103F1060808F0B9
:1098B0000F094FF47F014E45E16440F3268103F127
:1098C000080E0EF00F084FF47F014645216540F366
:1098D0002C8103F10A0C0CF00F0E4FF47F0176453A
:1098E000616540F3328103F10C0909F00F0C4FF46C
:1098F0007F016645A16500F3368100200E3303F039
:109900000F018E42E06540F33A81002A00F0D381D6
:10991000012A00F06E824FF47F0631E1002800F04A
:10992000FF81134B2366012800F03A82104EE66552
:10993000022800F033820E4FA765032800F02C8226
:109940000B496165042800F02582094B2365052831
:1099500000F01682064EE664062800F00F82044AE4
:10996000A26407283FF441AF014A71E70700008075
:1099700000FFFF00565555556F12833A0000004313
:10998000F5EEC07AF1EE10FA00F1CC815FED066AD7
:109990001FED060A77EEE60AB4EE001A70EEC15A21
:1099A00006EE106A75EEC14AF8EEC61A34EEC12A08
:1099B00020EE804A32EE415A65EE803A75EE412A39
:1099C000F4EEC41A24EE803AF1EE10FA62EE007A58
:1099D000F4EEE31A32EEC17A4CBF4FF47F494FF0F8
:1099E000000965EE000AF1EE10FAF4EEC31A4CBF5E
:1099F0004FF47F484FF0000862EE805AF1EE10FA03
:109A000077EE416AF4EEE71A4CBF4FF47F4C4FF00B
:109A1000000C27EE001AF1EE10FAF4EEE01A4CBF3B
:109A20004FF47F47002726EE800AF1EE10FAF4EE9D
:109A3000E51A4CBF4FF47F460026F1EE10FAF4EE23
:109A4000C11A4CBF4FF47F400020F1EE10FAB4EE83
:109A5000E10A4CBF4FF47F410021F1EE10FACCBF78
:109A60004FF47F430023C4F84490C4F84880C4F8FE
:109A70004CC027656665A065E165236640F6B83091
:109A800082427FF750AE002222704CE6D4F8BC210F
:109A9000BC4B1340002BC0F25181002AB8BF0732E3
:109AA0009946D010002900F01E814FF00008F8E020
:109AB00000209F1C07F00F084645606407DD002A60
:109AC00000F00E81012A7FF4E6AEAF4800E00020EE
:109AD0001F1D07F00F0E7645A06407DD002A00F079
:109AE000FC80012A7FF4E1AEA74800E000209F1D22
:109AF00007F00F0C6645E06407DD002A00F0EA80FD
:109B0000012A7FF4DCAEA04800E0002003F1080742
:109B100007F00F094E45206507DD002A00F0D780C9
:109B2000012A7FF4D6AE984800E0002003F10A072E
:109B300007F00F084645606507DD002A00F0C18088
:109B4000012A7FF4D0AE904800E0002003F10C071A
:109B500007F00F0E7645A0657FF7CFAE002A00F024
:109B6000AD80012A02D04FF47F00C7E603F10E0258
:109B700002F00F078448E065BE4200F33A810026F8
:109B800026662846BDE8F84301F0E2BBE06F9FED92
:109B90007F2AD0ED093A90ED085ADFED7D2A7A4B05
:109BA00033EEC23AB5EE007A73EE470A07EE906ADA
:109BB00030EEC71A75EE426AF8EEE71A23EE220A73
:109BC00020EEA26A76EEC75A71EE474AF4EEC01A4A
:109BD00021EE224AF1EE10FA24EEA22AF4EEC61A81
:109BE00075EEC73A4CBF9E464FF0000E26EEA25AC5
:109BF000F1EE10FAF4EEC41A4CBF99464FF000098A
:109C000025EEA23AF1EE10FA33EEC77AF4EEC21A5C
:109C10004CBF1F46002763EEA20AF1EE10FAF4EEE5
:109C2000C51A4CBF1E46002667EE222AF1EE10FA36
:109C3000F4EEC31A4CBF18460020F1EE10FAF4EE11
:109C4000E01A4CBF19460021F1EE10FAF4EEE21AC8
:109C50004CBF1A460022F1EE10FA58BF0023C4F898
:109C600050E0C4F84C90A76466642066E1656365C3
:109C7000A26558E5D4F8BC11424B434A4FEA400E66
:109C8000102040FA0EF00B408642B4BF90464FF0D1
:109C90000008002BC0F2B9800029B8BF07319946EF
:109CA000C81041001022384B42FA01FE7645B4BF7D
:109CB000184600202EE54FF47F4661E74FF47F40C1
:109CC0001CE64FF47F4041E74FF47F40F1E64FF44C
:109CD0007F402BE74FF47F4018E74FF47F4006E7C3
:109CE0004FF47F40F4E6884612E56364A6644FF4BF
:109CF0007F47032BE7642AD10026676526654FF46A
:109D00007F47062BA7652BD10023E36593E51E4A09
:109D10002266E265A26562652265E264A26497E557
:109D2000206603E6B34268DD4FF47F076764A764EB
:109D3000E76427656765A765E7657CE5581E60F001
:109D4000070808F10103A8E60021E664A1644FF4C6
:109D50007F46042B26657FF464AD0020A665606510
:109D60004FF47F41072B14BF0F460027E16562E5E2
:109D7000781E60F0070909F10107AFE4A264F3E57A
:109D8000E264ECE50700008000FFFF006F12833AF9
:109D9000000080422265DDE56265D6E5A265CFE57B
:109DA000E265C8E5DB077FF5DFAD1EE5D9077FF586
:109DB00014AD194912E5D8073FF507AD164F05E573
:109DC000DE077FF5FAAC144EF8E4DF073FF5EDACA3
:109DD0001148EBE4D9077FF5E0AC0F49DEE4012B35
:109DE0003FF4D3AC0C4FD1E4002B3FF4C6AC0A4E89
:109DF000C4E4094EC4E608485BE6002796E7421E25
:109E000062F0070C0CF101007DE403F1FF3969F009
:109E1000070C0CF101033FE700FFFF0070B490F85E
:109E2000C0410023012280F8B92180F8B82180F8D0
:109E3000883080F8AC3080F8D03080F8F430B4B19D
:109E4000C26F1E4DD369002914BF4FF0010C4FF0B3
:109E5000170C634485FB0351DE17C6EBA10404EB2A
:109E60004405A3EBC503D36170BCFFF7C7BBC56F47
:109E7000134EEC6926400131002E4FEAC10C18DB6D
:109E8000002CB8BF0734E4100D4A8C4214BF314691
:109E9000711C01EA0204002C04DB6444EC6170BC18
:109EA000FFF7ACBB631E63F00706741C6444EC61EF
:109EB000F5E7721E62F007035E1CE1E7ABAAAA2A6F
:109EC00007000080C368D0F88C21D0F8A811F0B446
:109ED00000EB4304B2F92050B4F92470BD424FEABC
:109EE000D176D4BF00270127B74204D0D0F89431EF
:109EF0005D1CC0F894514469B2F9387000EB440C11
:109F0000BCF924309F42D4BF00230123B34204D0C4
:109F1000D0F898516C1CC0F898418769B2F9443068
:109F200000EB470CBCF92450AB42D4BF00250125FF
:109F3000B54204D0D0F89C41671CC0F89C71C3693D
:109F4000B2F950C000EB4305B5F92440A445D4BF95
:109F500000240124B44204D0D0F8A0717B1CC0F8C6
:109F6000A031046AB2F95CC000EB4402B2F924509B
:109F7000AC45D4BF00250125B54204D0D0F8A4617A
:109F8000771CC0F8A471D0F890315C1C202CC0F86C
:109F9000904111D02A4F07FB01F101F5405606F11F
:109FA0003905002DC0F8A85141DB4FF090404FF427
:109FB00000740485F0BC7047D0F89431D0F89871E3
:109FC000D0F89C61D0F8A051D0F8A441D0F88020FE
:109FD000012BD4BF4FF0000C4FF0010C012FD4BF68
:109FE00000270127012ED4BF00260126012DD4BF52
:109FF00000250125012C4FF00003D4BF00240124CB
:10A00000C0F8903182F820C0C0F8943182F82170F5
:10A01000C0F8983182F82260C0F89C3182F8235051
:10A02000C0F8A03182F82440C0F8A431B2E74FF064
:10A03000904C4FF40072CCF81820F0BC704700BF71
:10A040006D4EC64130B4D0F88C21051D012100238E
:10A0500002E0013301310C32012BFAD055F82340D4
:10A0600092ED017A00EB440C0829BCF9244007EE7C
:10A07000904AFAEEE87A27EEC70A82ED000AE8D1A4
:10A08000D0F88821C0F8C4210523037030BC704784
:10A0900090ED717AD0ED627ADFED226A10B537EE7D
:10A0A000C70A82B0B4EEE60AF1EE10FA044606DD05
:10A0B000DFED1D0AB4EEE00AF1EE10FA1ED407231C
:10A0C00023704FF4003001211EF058F802AA4FF41B
:10A0D0000074002342F8084D4FF0010C022269463B
:10A0E0004FF090408DF804C08DF806308DF80730A1
:10A0F0008DF805201DF086FD02B010BDB3EE081AE4
:10A10000C1EE001AD0F88C110846B2EE082AA7EE6C
:10A11000612AC1ED041A81ED032AFEF703FE002037
:10A120002070CEE79A9919BFCDCC4CBE70B50446CD
:10A1300082B0643001F0C0FA2378072B46D8DFE8FC
:10A1400013F05E00080008004500F4004700E2003C
:10A15000E20094F864207F2A00F0208194F8656082
:10A160007F2E33D194F8D030022B00F0E38194F8A5
:10A17000D120002A40F0DE8184F8D02094F8F41039
:10A18000022900F0D38194F8F550002D40F0CE81E3
:10A1900084F8F45094F8AC30022B00F0C38194F8AA
:10A1A000AD20002A40F0BE8184F8AC2094F88810DD
:10A1B000022900F0B38194F88950002D40F0AE815F
:10A1C00084F888500023C4F8B431237002B070BD05
:10A1D00094F86400802800F0BD8194F8651080290F
:10A1E000F4D1012505F16C0625440023012244F831
:10A1F0002630204685F8B821FFF74AFFE6E794F8B5
:10A200006430802B00F0B180002B40F0B180D4F896
:10A21000B0210132C4F8B02194F86500802800F024
:10A220009D80002840F09D80D4F8B4110131C4F81D
:10A23000B411802B00F0308194F8F450802800F0A5
:10A24000FD8094F8AC00022D00F0998094F8D05075
:10A25000022D00F09480022800F08E8094F888008F
:10A26000022800F08980B2F5FA6F2FDBB1F5FA6FA2
:10A270002ADB002602AA04204FF4007369462070EE
:10A28000C4F8B461C4F8B06184F8886084F8AC6044
:10A2900084F8D06084F8F46002254FF0904042F8D2
:10A2A000083D8DF804608DF806608DF807608DF824
:10A2B00005501DF0A7FCD4F8B021D4F8B41194F8DF
:10A2C0006430B2F5FA6F01DB002962D0B1F5FA6FA4
:10A2D00001DB002A56D07F2B00F08D8094F865605A
:10A2E0007F2E00F010817F2B00F028817F2E7FF4DD
:10A2F0006DAF94F8B931002B7FF468AF204601218F
:10A30000FFF78CFD62E794F86420802A00F0F38068
:10A3100094F86550802D7FF459AF00260123C4F8CE
:10A32000B461267084F8B93150E794F8640080284D
:10A3300000F00D8194F8651080297FF447AF4FF04D
:10A34000010C0CF16C05A4440026012344F825609F
:10A3500020468CF8B831FFF775FE37E7002584F802
:10A36000B9510021C4F8B41163E7002084F8B801A2
:10A370000022C4F8B0214FE70225257073E70126BB
:10A38000267068E70226C4F8B421C4F8B02126700C
:10A39000A1E70120C4F8B01120709CE794F8D00028
:10A3A000022802D094F8D11001B1032194F8F4509E
:10A3B00084F8D010022D02D094F8F56006B103267F
:10A3C00094F8AC3084F8F460022B02D094F8AD20FD
:10A3D00002B1032294F8880084F8AC20022802D04D
:10A3E00094F8891001B10321002584F88810C4F87D
:10A3F000B0512570B2E694F8B851002D7FF46EAFDD
:10A40000D4F8B421002A7FF769AF94F8C0514FF017
:10A41000010E002685EA0E0284F8C02184F8B9E115
:10A4200084F8B8E184F8886084F8AC6084F8D0607F
:10A4300084F8F4602046FFF7E1F8C7E694F8880056
:10A44000461EF6B2012E0DD9D4F8906056B1B0F187
:10A45000030CDCF1000E5EEB0C00012684F8890091
:10A4600084F8886094F8AC0000F1FF3C5FFA8CF649
:10A47000012E7FF6E8AED4F8B460002E3FF4E3AED0
:10A48000B0F1030EDEF1000050EB0E0C012084F859
:10A49000ADC084F8AC00D6E694F8D0E00EF1FF3CF5
:10A4A0005FFA8CF6012E0DD9D4F8D85055B1BEF113
:10A4B000030EDEF1000656EB0E0C012584F8D1C028
:10A4C00084F8D05094F8F45005F1FF3E5FFA8EF610
:10A4D000012E7FF6B3AED4F8FC60002E3FF4AEAE92
:10A4E000033DD5F1000C5CEB050E012584F8F5E089
:10A4F00084F8F450A2E600200121C4F8B0012070D5
:10A5000084F8B81104E794F8B91100297FF4EBAE90
:10A51000D4F8B00100283FF778AFE4E6032684F8CA
:10A5200088604FE6032084F8AC003FE6032684F8F9
:10A53000F4602FE6032084F8D0001FE694F8B811E9
:10A5400000297FF4D3AE2046FFF768FC3EE64FF0CB
:10A55000000CF6E6002545E6D0ED267A9FEDD47A8C
:10A560002DE9F0410446808ED4ED256A94F88830B8
:10A5700006EE100AB8EEC60AB0EE673A90EE073A59
:10A58000E6EE837AC4ED267A4BB994ED291AD4ED20
:10A590002A1AD4F88C10E7EE811AC1ED001AE28E67
:10A5A000D4ED2F2ADFEDC23A94ED2E4A94F8AC5048
:10A5B00002EE102AF8EEC24AB0EE625A94EEA35AA6
:10A5C000E4EE052AC4ED2F2A4DB9D4ED327A94ED8C
:10A5D000336AD4F8B060A2EEA76A86ED006A278FCE
:10A5E000D4ED380A9FEDB27AD4ED376A94F8D000F2
:10A5F00000EE107AB8EEC01AB0EE603A91EE073A6B
:10A60000E6EE830AC4ED380A48B994ED3B2AD4ED4E
:10A610003C2AD4F8D430E0EE822AC3ED002A618FC0
:10A6200094ED414ADFEDA24A94ED405A94F8F420AB
:10A6300003EE901AF8EEE35AF0EE447AD5EEA47ADF
:10A64000A5EE274A84ED414A4AB994ED440AD4ED77
:10A65000450AD4F8F850E4EE000AC5ED000AA68FCA
:10A66000D4ED4A1A9FED927AD4ED496A94F81871A4
:10A6700001EE106AB8EEC12AB0EE613A92EE073AE6
:10A68000E6EE831AC4ED4A1A4FB9D4ED4D3A94ED73
:10A690004E4AD4F81C01A1EEA34A80ED004AE38F94
:10A6A00094ED535ADFED825AD4ED527A94F83C116E
:10A6B00004EE903AB8EEE46AB0EE450A96EE250A4A
:10A6C000A7EE805A84ED535A49B994ED561AD4ED49
:10A6D000571AD4F84021E5EE011AC2ED001AB4F879
:10A6E0004050D4ED5C2A9FED727AD4ED5B6A94F809
:10A6F000606102EE105AF8EEC23AB0EE623A93EEA2
:10A70000873AE6EE832AC4ED5C2A4EB9D4ED5F4A5F
:10A7100094ED605AD4F86471A2EEA45A87ED005A01
:10A720006768A668D4F88C31DFED627A93ED010A90
:10A73000D3ED000AE568D4F880209FED621ADFEDC2
:10A740005E1A5E4904EB470704EB4606B7F924702E
:10A75000B6F9246006EE107AB8EEC62A05EE906AC5
:10A7600062EE272A04EB4505E0EE220A04F1100808
:10A7700098E80151F8EEE54AB5F92470C2ED000AF7
:10A7800093ED044A93ED037A64EEA76A03EE907AA0
:10A79000A4EE267A04EB400004EB4808B8EEE35A36
:10A7A000B0F9246082ED017A93ED070AD3ED060A31
:10A7B000B8F9245025EE276A03EE106AE0EE060A87
:10A7C00004EB4C0C04EB4E0EF8EEC32ABCF924004B
:10A7D000C2ED020A93ED0A4AD3ED096ABEF924706C
:10A7E00062EEA73A05EE905AE4EE236AB8EEE50A67
:10A7F000C2ED036A93ED0D3AD3ED0C0A60EE275AD1
:10A8000002EE100AE3EE250AB8EEC22AC2ED040AEF
:10A81000D3ED102AD3ED0F3A22EE276A05EE107A17
:10A82000E2EE863AB8EEC55AC2ED053A266A93EDD5
:10A83000134AD3ED126A04EB460825EE270AB8F94D
:10A8400024C0E4EE006A05EE90CAB8EEE52AC2ED37
:10A85000066A93ED163AD3ED150AA36E22EE276A27
:10A860005D1CE3EE060A05EA0107002FC2ED070AA8
:10A87000D4ED622AD4ED613AB0EE625A94EEA75A52
:10A8800077EE634AE5EE012AB0EE631AA4EEA11A50
:10A8900084ED611A82ED011AC4ED622AC0F20181D1
:10A8A000A766032F25D8DFE807F0EBE74F2100BFAD
:10A8B00000008037000000383333333F030000804E
:10A8C000C520803FCDCCCC3D0AD7A33B8FC2F53C01
:10A8D000E17A41C2000040420000704200000000E6
:10A8E00000005442000040C26F12833A2046FFF736
:10A8F000E9FA201D00F07CFB04F1340000F0ACFE0E
:10A90000D4ED1E2AF2EE063A22EEA35AFDEEC57AE7
:10A9100017EE903A002B00F0B780092B00F0D3809F
:10A920000A2B00F0C380B8EEE71AB2EE087AD4ED35
:10A930001D6AE46F21EE074AB1EE0C0AA6EE804ACA
:10A9400084ED004ABDE8F08104F1A80E00221EF853
:10A95000206C032E0CD8DFE806F0077202115EF8B7
:10A96000185C5EF8101C29605EF8105C4EF8085CFC
:10A970000132072A0EF1240EE9D1BAE75EED041A7E
:10A980001EED027A1FED304A71EEC76AB0EEE60A9C
:10A99000B4EEC40AF1EE10FAEADDF5EEC06AF1EEAB
:10A9A00010FA1EED033A40F3E3805FED3B2A72EEAE
:10A9B000C73A32EEC35A85EE236A5FED3E7AB4EEB3
:10A9C000E76AF1EE10FA08D4F2EE047AB4EE676AA0
:10A9D000F1EE10FAD8BFF0EE467AA6EEA73A5FED98
:10A9E000414AB4EEE43AF1EE10FA00F1BC80B7EE61
:10A9F000001AB4EEC13AF1EE10FAD2BF0EED033AEE
:10AA0000B0EE413A0EED031A1EED010ADEED000A2A
:10AA10001FED534A5EF81C0C4EED021A33EE617ABC
:10AA2000E0EE030AF0EEC76AF4EEC46AF1EE10FA43
:10AA300044BF00260EF8206CC0ED000A98E75EEDDA
:10AA4000041A1EED023A1FED5F2A71EEC35AB0EEF2
:10AA5000E56AB4EEC26AF1EE10FA89DD5EF8187CA0
:10AA60000EED033AC7ED001A5EF8106C4EF8086C54
:10AA700002200EF8200C7BE72046FFF757FB38E753
:10AA80002046FEF7F7FD34E7D4ED1D4A1FED6E4A70
:10AA90001FED710AE26FA4EE840A82ED000ABDE8A0
:10AAA000F0817A1E62F003014F1CF9E6D4ED1D0A15
:10AAB0005FED781A1FED783AE16FA0EEA13A81EDD3
:10AAC000003ABDE8F081B6EE007A94ED1D2AD4ED8F
:10AAD000742A94ED751A1FED7F6AD4ED764A94EDD1
:10AAE000735AD4ED1C5A5FED827AE76FF0EE473A65
:10AAF000E2EE073AB8EEE44AA3EEA21ABFEE000A6D
:10AB000071EE066AF7EE000AF4EEC46AF1EE10FA8E
:10AB1000C8BFF0EE400AE5EE206AF2EE0C1A36EEFF
:10AB2000873AE5EEA17ABDEEC32A12EE105A002D47
:10AB300015DBD4F8C861B54223DB701F05EE100A9F
:10AB4000F8EEC55AB2EE087A65EE873A751E77EED2
:10AB5000A37AC4F8D851C7ED007ABDE8F0815FED63
:10AB60009F3A0025F3E74EED034AB0EE643A4BE717
:10AB70005FEDA30A37EE202A73EE205A85EE826A33
:10AB80001BE7A5F1040802EE908AB8EEE21AB2EED5
:10AB9000086A61EE063ADAE730B54B1183B0044635
:10ABA00001F01F01052B40D8DFE803F00E14222B23
:10ABB0003003D0F88000014491F8202082F0010594
:10ABC0006B42D8B203B030BD00EB41039C8E200A2B
:10ABD00003B030BD00EB810CDCF8041000EB410049
:10ABE000B0F9245005F50042C2F3072003B030BD90
:10ABF000014491F86440D4F1010038BF002003B053
:10AC000030BD79B1062303700020DBE701292AD08B
:10AC10000DD3022909D1FFF73BFA2046FEF7EEFCDF
:10AC20000020CFE701700846CCE70020CAE7C06FDC
:10AC30000DF1080C00254FF400710422C5614CF899
:10AC4000081D4FF0020E4FF09040694622708DF8BB
:10AC500004508DF806508DF807508DF805E01CF073
:10AC6000D1FF2846AEE7FFF7EDF90020AAE700BFC5
:10AC70002DE9F00100230024DFF86080164FDFF893
:10AC800060C0C0F84011FF26202504214670857061
:10AC9000C0F82481C0F82C71C0F81041C0F81441EC
:10ACA000C0F81841C0F81C41C0F84421C0F8381160
:10ACB000C0F828C180F83C31A0F80E3103708380C1
:10ACC00080F83431C0F83031C0F8483180F8203194
:10ACD000BDE8F001704700BF09D7233A6F12833AED
:10ACE0000AD7A33B002310B42021FF240422447080
:10ACF0008170C0F83821A0F80E310370838080F88D
:10AD00003431C0F83031C0F848315DF8044B704739
:10AD100038B590F8203190ED477AD0ED4A6A80ED51
:10AD2000470A002BB7EE006AFFEE007A08BFF0EE8C
:10AD3000467A66EEA70A30EE470A90F83411B4EE70
:10AD4000E00AF1EE10FA0446D4BF0020012081424F
:10AD500084F8200131D0D4F8301184F83401062968
:10AD600029D8022994BF00210121D4F838511DB1FE
:10AD70006B1EC4F8383102210025C4F8305120463A
:10AD80001CF0ACFB022884F83C011ED012D304282E
:10AD90003AD8FF2120220423A4F80E512570A58063
:10ADA00084F83451C4F83051C4F848516170A2702D
:10ADB000C4F8383138BD0221D7E7D4F8303194F8DF
:10ADC0003C015D1CC4F8305138BDD4F84831D4F88A
:10ADD0004451AB4209D24FF48072D4F84051E11D86
:10ADE0009AB903F58071C4F84811FF25202100238A
:10ADF00004226570A1702370A38084F83431C4F8F4
:10AE00003031C4F8382138BD38BDE8181DF0DBFBFF
:10AE1000D4F8483194F83C01E3E700BF00B54FF4A3
:10AE2000003083B001211DF0A9F902A94FF450634D
:10AE30004FF0000C41F8083D022269464FF0904067
:10AE40008DF806C08DF807C08DF804208DF8052018
:10AE50001CF0D8FE4FF09040082105221DF04AF862
:10AE60004FF090400A2105221DF044F84FF0904029
:10AE70000B2105221DF03EF803B05DF804FB00BF76
:10AE800030B5114C85B00D464FF4804001211DF0C6
:10AE900091F920461DF02AFA00234FF40072204653
:10AEA0006946ADF80020ADF80230ADF80430ADF8D9
:10AEB0000630ADF80C3002951DF08AFA20460121CB
:10AEC0001DF0F6FA05B030BD003800402DE9F04322
:10AED000224CDFF89480064601208DB00D460146D5
:10AEE0001DF04CF9204600211CF080FD20461CF08E
:10AEF000CDFC06F1080100234FF0100C4FF0800E3E
:10AF00004FEA8509204602914FF4005201A94FF4FF
:10AF100080754FF480672026CDF80CC005930B9305
:10AF2000CDF818E00A92ADF81090CDF8048007959E
:10AF3000089709961CF02CFD204606210122084C9A
:10AF40001CF062FD4FF400412160064802210122FD
:10AF50001DF0BEFA0DB0BDE8F08300BF58000240FE
:10AF600000E100E0003800400C38004070B50A4BAA
:10AF700015460022044618600E4642600560FFF741
:10AF80004DFF20463146FFF77BFF20462946BDE8AE
:10AF90007040FFF79BBF00BF20680020416002485F
:10AFA00001211CF023BD00BF5800024008B50E4B24
:10AFB0001A684FF4C021596091030AD4530300D496
:10AFC00008BD0A48026892E80A0002F108009847A2
:10AFD00008BD064B1B6893E8060001F1020C03EB69
:10AFE0008C00904708BD00BF000002402068002090
:10AFF00008B505481DF056F904481DF053F90448FA
:10B00000BDE808401DF04EB90060014000640140F9
:10B01000006801402DE9F04F012193B081464FF0C7
:10B0200080501DF0C7F84FF4007001211CF0A0FF04
:10B030004FF4806001211CF09BFF4FF40060012160
:10B040001CF096FF4FF0807001211DF0A5F84FF025
:10B05000007001211DF0A0F801214FF080601DF06B
:10B060009BF84FF028401CF09DFF022001211DF0AD
:10B0700085F84FF4802001211DF080F84FF48010F6
:10B0800001211DF07BF801214FF400101DF076F82E
:10B09000634D00201DF0F0F8002703214FF04062BF
:10B0A0004FF0804305F1080405F1B40A8DF80B70E8
:10B0B0008DF80A70049706978DF80810039205938F
:10B0C00054F8080C01211DF0C3F854F8080C4FF493
:10B0D00000411DF005F90128F7D0A86800280FDD10
:10B0E0002E464FF00008318B7069019101A91CF0C8
:10B0F00089FDAA6808F10108424506F11006F2DC54
:10B1000054F8080C01211DF0ADF854F8080C4FF06C
:10B1100000411DF0E5F80028F7D054F8083CA96874
:10B12000ADF8281007F1100B03F16002802109EB44
:10B130004B0300264FF4806E54F8040C07920893DA
:10B1400020224FF400530C914FF4807807A9CDF8DA
:10B1500038E00F92109309960B961196CDF8348033
:10B160001CF016FC54F8080C314603AA1DF04CF8EC
:10B17000A868B042B34614DDA84698F80CC058F849
:10B18000103F54F8080C49F82C70002219464BEA7D
:10B19000030B1DF04BF8AA680136B24207F1010714
:10B1A000EBDC594654F8080C1DF082F854F8080CF2
:10B1B00000211DF081F854F8080C04211DF066F8F8
:10B1C00054F8080C00211DF04DF854F8080C4FF00D
:10B1D00000411DF085F80128F7D054F8080C1DF047
:10B1E0005BF854F8080C01211DF07AF80028F8D01B
:10B1F00054F8040C01211CF0F9FB3C3554F8080C00
:10B200004FF4803101221DF061F8554504F13C04F2
:10B210007FF456AF4846FFF7EBFE13B0BDE8F08F62
:10B2200010AA03082DE9F041012188B005464FF42A
:10B2300080001CF0A3FF4FF4003001211CF09EFFA2
:10B2400008AF4FF4805001211CF0A6FF802347F87F
:10B250001C3D002402264FF00108394632488DF883
:10B2600008808DF809608DF80A408DF80B401CF0BD
:10B27000C9FC394640222C488DF808608DF80960D9
:10B2800001928DF80A408DF80B401CF0BBFC0522A2
:10B29000254806211CF02EFE39464FF090404FF411
:10B2A00080578DF808608DF809608DF80A408DF898
:10B2B0000B4001971CF0A6FC4FF090400C21062299
:10B2C0001CF018FE4FF400764FF4827E4FF4706C41
:10B2D0003822072303A91548ADF80EE0ADF810C0D9
:10B2E000ADF81820ADF81C30ADF80C40ADF81240A8
:10B2F000ADF81440ADF81A40ADF816601DF02CF80A
:10B300004146A84609481DF0C3F848F8044B48F8E0
:10B31000044BC8F80040EC602C616C61AC61EC61DE
:10B3200008B0BDE8F08100BF0014004800300140C3
:10B330000246002370B442F8043B42F8043B70BC60
:10B340001360C360036143618361C361704700BFE1
:10B35000D0F800C08169426903692DE9F0031CF44B
:10B360007F0F47688668C568C469DFF800810CBF35
:10B370004FF000094FF001091CF47F4F0CBF002073
:10B38000022017F47F0F49EA00090CBF00200120BA
:10B3900017F47F4F40EA890C0CBF0027022716F4F0
:10B3A0007F0F4CEA07090CBF0020012016F47F4FE5
:10B3B00040EA89070CBF0026022615F47F0F47EAF2
:10B3C000060C0CBF0020012015F47F4F40EA8C07CB
:10B3D0000CBF0025022514F47F0F47EA05060CBFB9
:10B3E0000020012014F47F4F40EA86070CBF0024A0
:10B3F000022411F47F0F47EA04050CBF0026012642
:10B4000011F47F4F46EA85090CBF0021022112F496
:10B410007F0F49EA010C0CBF0020012012F47F4F7E
:10B420000CBF0027022740EA8C0213F47F0F0CBFE9
:10B430000025012542EA070413F47F4F45EA8406FC
:10B440000CBF4FF000094FF00209802346EA0900C3
:10B45000C8F8183000BF054A4FF08008A2F82880CD
:10B4600000BF0349BDE8F00388817047001400481D
:10B47000003001402DE9F043012193B007464FF41D
:10B4800000701CF089FE4FF440401CF07FFD4FF42B
:10B49000003001211CF072FE012001461CF06EFEFE
:10B4A00000257F234FF003084FF0904001A90724A7
:10B4B0000193DFF8A0918DF80B504FF480668DF862
:10B4C0000A508DF808801CF09DFB4FF0800C4FF463
:10B4D000807E4FF4005320225C48CDF830C007A98D
:10B4E000CDF834E010930F92CDF81C900E9608978B
:10B4F00009950B951195ADF828401CF049FA534871
:10B5000001211CF073FA4FF001094FF4006250481A
:10B51000059203A94FF460268DF80D508DF8184060
:10B520008DF80C9004961CF00DF929464A462346E6
:10B5300047481CF03FF902210A46234644481CF0C4
:10B5400039F941464246234641481CF033F9494601
:10B5500023463F4804221CF02DF923463C4806218F
:10B5600005221CF027F923463948052106221CF044
:10B5700021F922462346364804211CF01BF93448A1
:10B5800049461CF001F932481CF00EF930481CF015
:10B5900079F90028FAD12E481CF000F92C481CF04B
:10B5A0006DF90028FAD12A4801211CF05DF93846CE
:10B5B0004FF4004120F8021B0E3787424FF006057A
:10B5C0003ED03DB3012D1FD0022D19D0032D13D035
:10B5D000042D0DD0052D07D0062D18BF20F8021B15
:10B5E0004FF4004420F8024B4FF4004320F8023B94
:10B5F0004FF4004620F8026B4FF4004820F8028B0D
:10B600004FF4004C20F802CB4FF4004E20F802EB30
:10B61000874215D081464FF4004229F8022B1030A2
:10B6200020F80E2CA9F8022020F80A2C20F8082C6B
:10B6300020F8062C20F8042C20F8022C8742E9D1AF
:10B6400003481CF00BF913B0BDE8F083080002407A
:10B65000002401404C24014001481CF0FFB800BF09
:10B660000024014070B582B0054602AC01214FF4C0
:10B6700080201CF083FD8023012244F8083D6946A8
:10B68000002402260B488DF807208DF804408DF821
:10B6900006408DF805601CF0B5FA69464023054860
:10B6A00000931CF0AFFA2846FF2100F8011B01703F
:10B6B00002B070BD0004004870B50C4D0678044619
:10B6C000720028468021D6B21CF00EFC637830430D
:10B6D00020704FEA430C284640215FFA8CF51CF09D
:10B6E00003FC40EA0501617070BD00BF0004004822
:10B6F0002DE9F84F054600F5065305F54F6B05F6A5
:10B70000F44A05F6F849C3F800B000264FF07E5E13
:10B71000DFEDCE7A85F8FC6C05F68C5BCAF800E0AC
:10B720000C46C9F800E005F55961C3F804B005F608
:10B73000945A05F6F45B85F8986D00F5F558C1ED5F
:10B74000007A05F55F69CAED007A012105F6F85A1D
:10B75000C3F80890C3F80C9000F5F75C85F8FC1D61
:10B7600000F5FF57CBF800E008F1100BCAF800E035
:10B77000B74AC3F81090C3F814B005F1B00A88F8BE
:10B780001C60C8ED057AC8ED067A07F1100B4FF082
:10B790007C58C3F818C0AF488CF80C60CCF8042073
:10B7A000CCF8082005F58279C3F81CB005F59E7C1D
:10B7B000C7F81480C7F818803E7705F5E0781D6259
:10B7C00005F51F772E736A60AA6005F5317BC3F813
:10B7D00024A09FEDA17A85F8BC6005F5856AC5EDCA
:10B7E0002D7AC5F8B800C3F82890C5F80801C5F847
:10B7F0000C0185F8106105F58669C3F82CC0C5F801
:10B80000440185F84861C5ED507A05F22C4CC3F827
:10B81000308085F8CC61C5F8C421C5F8C8215F63C4
:10B82000C5F88002C5F8840285F8886205F5BA6714
:10B83000C3F838B085F8D062C5F8C822C5F8CC2264
:10B84000C3F83CA005F2D45A85F8346405F2CC580C
:10B850008CED007ADFF810B2C9F8002005F5BC6C59
:10B86000C3F8408085F8D865C7F800B0CAF800E092
:10B8700005F26467C3F844C005F5CD6CBFEE000A5D
:10B8800005F2E45005F5BD6805F5CC694FF0404B75
:10B8900085F8EC6505F5E96A80ED000A05F5E860D4
:10B8A00088ED000AC3F8489005F2447885F86C6684
:10B8B000C7F800B0CCF800E005F6940CD86405F6A3
:10B8C0008C0785F84C1705F5096988ED000A05F520
:10B8D0001D6E05F6D41005F6D818CAF800201F65AD
:10B8E00005F5296A85F8981805F68C2789ED000A70
:10B8F000CCF80020C3F854E005F53B6C05F6B43EE7
:10B9000085F8DC1905F6882B026005F6AC39C8F815
:10B910000020182005F50758C3F858B085F8941A88
:10B9200008F1200B3A60CAF800201F1FC3F85C9092
:10B9300085F8B81BCCF80020CEF80020186657F820
:10B94000040F63680268E16823601368A160214600
:10B950009847DBF800300136B342F0DC5C1E06EE9F
:10B96000104A05F5035E42F2E00005F50558DFF8E0
:10B97000FCA02B50F8EEC61ACEF824A0002200241A
:10B98000C246F146C446DFED356ADFED350A9FED6C
:10B99000351ACEED0A1A42F2F40B42F2F807CEF84D
:10B9A0002C20CEF830404346C6464FF0FF3605F80F
:10B9B0000B4005F50451EE51C346C9F83C20C8F8C8
:10B9C0000C20C3ED046AC3ED050A83ED061AE046B8
:10B9D000CCF82020CAF81C20D4464FF07C5ACEF870
:10B9E00008A0CEF828205E46CBED0B6ACBED0C0A02
:10B9F0008BED0D1A994642F2041E01F120038B468D
:10BA0000B7EE002AB342C9F83C20C8F83820CCF879
:10BA100024A08A60C1F814A0CA608A610C7781ED05
:10BA2000042A05F80E40CBF8002073600AD01D46AA
:10BA300045F8042B45F8042B2A60DA601A615A6134
:10BA40009A61DA6100213160BDE8F88F3333333F0A
:10BA5000CDCC4C3F9A99193F333333BF22BA003DC6
:10BA60000AD7233CCAAA7F3F000040C0CDCC4C3D42
:10BA70002DE9F04F044600F50550D2F8188007680C
:10BA800046689FEDED7A1546FA1D02F0070206EBB7
:10BA9000870A02F1050E02F1060C0EF007090CF000
:10BAA00007072DED048B06EB890BCAF8008006EB27
:10BAB0008706DBED007AD6ED006A026042F20410E0
:10BAC00036EEE70A14F800A08BB00E469B46E0EE77
:10BAD000077ABAF1000F40F093839FEDD81AF4EE85
:10BAE000C17AF1EE10FA00F3FC8704F5045104F575
:10BAF000035301F1080903F13C0895F82320002ABB
:10BB000000F07983D8ED001A04F5035808F12007F6
:10BB100097ED026AD7ED032A96ED072A97ED044ABE
:10BB200097ED013AE6EE212A42F2E000F8EEC23A41
:10BB3000F8EEC44A32EEA35AFFEE005AB4EEE45ACD
:10BB4000F1EE10FAB7EE008AC8BFB0EE658AA3EE38
:10BB5000085AF6EE008A35EE289AFDEEC99A19EEDB
:10BB6000908AB8F1000FC1F2E1802358984501DBBB
:10BB700003F1FF3842F2F80E04F5065C54F80E109B
:10BB8000C7F8108041455CF8287001F06D80AC4A20
:10BB90001178552901F08080A8F10203022B01F2EF
:10BBA0008680A84A52F82310386883683846984738
:10BBB000396838464A68904704F5055C42F2F80057
:10BBC00042F2F4024FF07C530021CCF8083095F893
:10BBD000233044F80080A15442F20410215C002973
:10BBE00000F007838AF0010A04F5045E9EED007AF6
:10BBF000D5ED017A77EE876AB6EE000ACEED007ACF
:10BC000066EE800A002B00F0F18200290CBF0020B4
:10BC1000042040EA0A01049196ED081ADFED8A1A21
:10BC2000DFED8A2A95ED074A9FED892ADFED833AF9
:10BC30009FED885ADFF83CA2874ADFED884AD9EDAC
:10BC4000005AE1EE212AB0EEC43ABDEEE26A33EECC
:10BC5000238AF8EEC68A24EE059A72EEE89AC9EEB7
:10BC6000086A29EE827A16EE10CAFDEEC77A02EB58
:10BC70008C0E17EE900A0AEB80019EED000A91ED02
:10BC8000001A60EE012AB7EE002A62EEA48AF0EEF6
:10BC9000001AB1EE688AB0EE424AA8EE214AF5EEEB
:10BCA000C06A64EE259AF1EE10FAC9ED009A00F12F
:10BCB000E787F4EE426AF1EE10FACCBFB0EE429A9A
:10BCC000B0EE669A96ED015AD5ED034A95F8242018
:10BCD000DFED635A35EE243A002AB5EEC03A18BFBC
:10BCE000F0EE495AF1EE10FA4FF00000CDED095A8E
:10BCF00000F1C387B7EE006AB4EEC63AF1EE10FA6F
:10BD0000C8BFB0EE463A8DED083AB8F10F0F00F01B
:10BD10007F87B8F1070F00F0CD87B7EE007A95F86E
:10BD2000210095F8201095F82220F0EE471A96EDA4
:10BD3000041ADFED4A2A9FED4B2AD6ED003AD5EDE5
:10BD4000025AB0EEC14A34EE625A21EEA93AB4EE7C
:10BD5000E25AF1EE10FA58BFF0EE452A61EE224A9F
:10BD600070EEA30A24EE826A41B9002B00F0D68659
:10BD700023EE290ADFED3C6A60EE265AE6EE250A3C
:10BD8000DFED3A1AF4EEE10AF1EE10FA08D4DFED35
:10BD9000381AF4EE610AF1EE10FAD8BFF0EE601A2C
:10BDA00096ED051ADFED2D7ADFED2E2ACDED051A81
:10BDB000B0EEC12A72EE673A96ED024AD5ED040A5A
:10BDC000F4EEE73AF1EE10FA58BFF0EE637A21EEA6
:10BDD000275A65EE224A20B9002B00F09B8667EEB9
:10BDE000290AF0EE449AE4EEA09AF5EEC09AF1EE3C
:10BDF00010FA00F14987B7EE007AF4EE479AF1EEB7
:10BE000010FACCBFB0EE476AB0EE696A96ED060A4A
:10BE1000DFED121A9FED131A8DED066AF0EEC05A8F
:10BE200075EEE17AD6ED032AD5ED056AF4EEE17AF6
:10BE3000F1EE10FA26E000BF000000009A99993E4A
:10BE4000FE7F0008040000200000C0C20000004384
:10BE5000000080436666A63F24E50308CDCC4C3D38
:10BE6000CDCC4C3F6666863F000040420000EEC2EB
:10BE70000000F04228E903080000000000FEFFC6B1
:10BE8000CDCCCC3D58BFF0EE671A20EE212A62EEF1
:10BE9000013A2AB95FED086A002B18BFF0EE436A39
:10BEA000B0EE624AA3EEA64AB5EEC04AF1EE10FA31
:10BEB00000F1EE86B7EE003AB4EE434AF1EE10FA26
:10BEC000C8BFB0EE434A3968189B387B00930DF128
:10BED0000F0204F5075804F50959019208F12408E6
:10BEE00009F104098DF80F00D1F80CC08DED074A57
:10BEF00004A942464B463846E0479DF80F1049B921
:10BF000095F82430002B40F0858195F82350002DC2
:10BF100040F0808104F504535FED299A0026F7EE86
:10BF2000005AB6EE008A1E77C3ED039AC3ED069A57
:10BF3000C3ED045A83ED058A012697ED014AB5EE5B
:10BF4000C04AF1EE10FA00F1DE8100F10E875FEDDC
:10BF5000354A189A24EE243AF0EE698AF0EE483A0F
:10BF6000B0EE659A531E002E00F09E82189A002AA9
:10BF700000F08E80F8EC019A63EE295ADC46BDEEA3
:10BF8000E58A03F0030018EE105A05F1010E0EF3D6
:10BF90000F0A2CF804AB591E0CF10402002B77D0C9
:10BFA000A8B3012821D002280FD0B8EC017A63EEA3
:10BFB000076A0139FDEEE60A043210EE90CA0CF170
:10BFC000010505F30F0022F8080CF8EC014A23EEF6
:10BFD000245A0139BDEEC56A043216EE10EA0EF19C
:10BFE000010505F30F0A22F808ACF8EC011A23EE5C
:10BFF000211A0139BDEEC10A043210EE10CA0CF14B
:10C00000010000F30F0522F8085C4D1C40D0C64625
:10C01000FEEC017AD8ED022A9EED002A98ED038A03
:10C0200008F1100823EE274A63EE029AFDEEC45A87
:10C03000BDEEE97A63EE220A63EE086A104615EE59
:10C0400090AA17EE105AFDEEE04ABDEEE65A0AF14C
:10C05000010C05F1010E0CF30F0A0EF30F0522F887
:10C0600004AC14EE90CA20F8045B15EE10EA043913
:10C070000CF1010A0AF30F0CA0F800C0481C0EF1E5
:10C08000010502F1100205F30F0E22F808ECBED1F3
:10C09000D7ED029AF5EEC09AF1EE10FA00F13D8369
:10C0A00000F1FE831FED8B7A69EE870A002E00F007
:10C0B000FC83189C002C00F09480B9EC019A60EE8F
:10C0C000893A03F00306FDEEE38A0BF10A0A18EE43
:10C0D00090CA03F1FF380CF1010707F30F00ABF82A
:10C0E0000200002B7DD0DEB3012E24D0022E10D012
:10C0F000B9EC018A20EE883A08F1FF38FDEEC39AC8
:10C1000019EE903A5D1C05F30F042AF8044C0BF16C
:10C110000E0AB9EC011A60EE817A08F1FF38BDEE23
:10C12000E77A0AF1040A17EE10BA0BF1010606F3DA
:10C130000F072AF8087CB9EC015A60EE856A08F10D
:10C14000FF38FDEEE62A18F1010412EE90EA0AF13A
:10C15000040A0EF1010101F30F002AF8080C40D087
:10C160004A46B2EC010AD9ED021A92ED006A99ED45
:10C17000034A09F1100960EE804A20EE862AFDEE9E
:10C18000E45ABDEEC29A60EEA13A60EE848A53464C
:10C1900019EE105A15EE90CABDEEE38ABDEEE83AEC
:10C1A0006E1C0CF1010406F30F0104F30F0718EEE7
:10C1B00010BA2AF8047C13EE10EA23F8041BA8F145
:10C1C000040818F101060BF101020EF1010002F35F
:10C1D0000F0500F30F041D800AF1100A2AF8084C1D
:10C1E000BED10BB0BDEC048BBDE8F08F02220492EF
:10C1F00012E58A46F8E4D5ED001AC8ED001A83E48A
:10C200005FEDE10AF4EEE07AF1EE10FA44BF0023AC
:10C2100023546AE4D6ED090AD6ED084ADFEDDE9A2A
:10C220009FEDDE6A9FEDDE0ADE4E9FEDDF5AB2EE35
:10C23000087A60EE871AE4EEA91A31EE861AFDEE4E
:10C24000C15AF8EEE57A15EE90EA71EE672A06EB30
:10C250008E0062EE803A90ED002AFDEEE36A16EE63
:10C26000902A0AEB820C9CED003A22EE034AA4EEDF
:10C27000058A002B00F0568404F5045C0CF10C01D7
:10C28000D1ED005ADFEDC92A9FEDC92A97ED014A89
:10C2900039EE659A25EEA56AF7EE003A33EEE55AD7
:10C2A00066EE061AB5EEC09AF1EE10FA25EE051A02
:10C2B000D8BF73EEE13AB7EE000AD8BFE8EE238AA2
:10C2C0004FF0000670EE417A9FEDBA8AC8BFDFEDED
:10C2D000BA8AA0EEA71AA1EEA28AE9EE285A20EEA9
:10C2E000813AA0EE828A60EE839AB5EEC04AF1EE02
:10C2F00010FAC1ED005AC1ED015AC1ED039A81ED6A
:10C30000028A7FF522AE189DB1EE447A6B1E002D95
:10C3100000F06D854246F2EC016ADFEDA80A9FED60
:10C32000A85A04F5055E0EF1080A27EE266ADAED32
:10C33000001AB0EEC61A31EE610AF7EE007AB5EED9
:10C34000C00AF1EE10FAC8BFB0EE605AE0EE051A6E
:10C3500003F00101F4EEE71AF1EE10FACAED001A4B
:10C3600001D9C7EEA17A5D1E66EE272A9FED952AB8
:10C3700022EE823A02ED013A002B00F0888061B390
:10C38000B2EC014ADAED008A9FED8C9ADFED8C3A2F
:10C39000DFED8C1A67EE046AF7EE004AF0EEE60A6B
:10C3A00030EEE85A013DB5EEC05AF1EE10FAC8BFC2
:10C3B000F0EE493AE5EE238AF4EEE48AF1EE10FA63
:10C3C00088BFC4EEA84A681CCAED008A26EEA46A9B
:10C3D00026EE211A02ED011A59D09446BCEC010A4E
:10C3E000DAED007ADFED752A9FED752ADFED756ACB
:10C3F000DFED720ADFED723A67EE008AB7EE004AAF
:10C40000B0EEE83A33EE679A6246B5EEC09AF1EEC6
:10C4100010FAC8BFB0EE622AE9EE027A681EF7EEA3
:10C42000002AF4EEC47AF1EE10FA88BF84EE274AAF
:10C43000CAED007A68EE844A24EEA65A0CED015A41
:10C44000B2EC016ADAED001A27EE061AB0EEC10A64
:10C4500070EE617AF5EEC07AF1EE10FAC8BFF0EE38
:10C46000603AE7EEA31AF4EEE21AF1EE10FACAED22
:10C47000001A01D9C2EEA12A451E9FED522A61EE93
:10C48000228A28EE824A02ED014A0028A5D104F54D
:10C49000045E9EED049ADEED053ADEED068A9FED20
:10C4A0004A3A002E7FF462AD9FED486ADFED481AEC
:10C4B00028EE061AB7EE000AE1EE081A04F5055157
:10C4C00001F10C0AF0EE042A21EE887AB0EE404A1F
:10C4D000A7EE224A04F5055202F1100EDAED006AC9
:10C4E0008EED007AA7EE074AB0EE668A80EE045A17
:10C4F00093EE258A9DED183A8EED025AF8EE437AB6
:10C5000013EE100ACEED012AC8EE270A002800F02B
:10C51000FA805D4603F00102581EDEED035AB8ECC6
:10C52000016ADEED044A76EEA06A22EEE52AB1EE5B
:10C53000471AA6EE262AA1EE252A72EE641A25EEE7
:10C54000210AE7EE005AE7EE254AB0EE654AB0EE62
:10C55000648A96EE268AB0EE646AE8EE294AA7EE6F
:10C56000004AA7EE256AFDEEE44A8EED046A14EE59
:10C5700090CA8EED034A0CF1010101F30F0C25F86E
:10C5800004CBF0EE447AF0EE465A0435002B00F06E
:10C59000BA80002A51D01DE0000090C20000004384
:10C5A0000000804324E503080AD7A33B9A99993EEB
:10C5B0000AD7233DA69B443B9A99193FCDCC4C3DCD
:10C5C000ACC5A737CDCC4C3F00FEFFC6D75739418D
:10C5D000DB0F4940B8EC012A76EEA06A62EEC42A6D
:10C5E000B0EE468AE2EE262A01380435E1EE042A4E
:10C5F00072EEC61A25EE210AA7EE004AA7EE048ABB
:10C60000F0EE447AB0EE483A92EE263AF0EE485A0E
:10C61000A3EE298AE7EE007ABDEEC86AE7EE045A77
:10C6200016EE102A511C01F30F02411CCEED045AE4
:10C63000CEED037A25F8082C65D0F0EE042AF8EC4C
:10C64000011A36EEA00A62EEE74A70EE206AE1EEC9
:10C65000804A29460238E1EE274A34EEE52A25EEE3
:10C66000024AE7EE047AE7EE275AB0EE678AB0EEA8
:10C67000656AA7EE048AA7EE276A8EED038A8EED1F
:10C68000046A62EEC87AF8EC012AE2EEA67AF0EECD
:10C69000654AE1EE087AD1EE804A77EEC61AB0EE2E
:10C6A000483A25EE212AE4EEA95AA7EE023AFDEE19
:10C6B000E55AA7EE036A15EE90CAB0EE468A92EEEE
:10C6C000A68A0CF1010202F30F02F0EE465AA8EE20
:10C6D000296A25F8042CB0EE434AA7EE024AE7EE99
:10C6E000035ABDEEC63ACEED045A13EE105A8EED43
:10C6F000034A6A1C02F30F0C21F804CB0D1D411CE8
:10C70000F0EE447A99D1CAED006AD7ED029AF5EEBF
:10C71000C09AF1EE10FA7FF5C3AC189FF1EE690AEA
:10C72000002F00F0BD804946B1EC011A5FED5D7A43
:10C730001FED5D5A04F5055808F1240E60EE816A7C
:10C74000DEED002AB0EEE66A76EE624AB7EE000A47
:10C75000F5EEC04AF1EE10FAC8BFB0EE675AE4EE4B
:10C76000852A03F00100F4EEC02AF1EE10FACEEDB6
:10C77000002A01D980EE220A5D1E66EE801A5FED66
:10C780006F5A21EEA52A01ED012A002B00F08880C6
:10C7900060B3B1EC014A9EED008A1FED783A5FED7F
:10C7A000789A5FED782A20EE847AB7EE001AF0EEE0
:10C7B000C77A37EEC85A013DB5EEC05AF1EE10FA0D
:10C7C000C8BFF0EE439AA5EE298AB4EEC18AF1EE15
:10C7D00010FA88BF81EE081A681C8EED008A67EE99
:10C7E000016A26EEA26A01ED016A59D08A46BAECC6
:10C7F000010ADEED001A5FED8F4A1FED8F2A5FED13
:10C800008F9A1FED921A5FED927A20EE804AF7EE32
:10C81000005AB0EEC48A38EE613A5146B5EEC03ADD
:10C82000F1EE10FAC8BFB0EE642AE3EE021A6A1EF7
:10C83000F7EE004AF4EEE51AF1EE10FA88BFC5EE05
:10C84000A15ACEED001A24EE257A27EE295A0AEDD8
:10C85000015AF1EC016ADEED002A20EEA60AB0EEE4
:10C86000C06A76EE621AF5EEC01AF1EE10FAC8BF91
:10C87000F0EE417AE1EEA72AF4EEE42AF1EE10FAA6
:10C88000CEED002A01D9C4EEA24A551E1FEDB32AEF
:10C8900020EE244A64EE025A41ED015A002AA5D145
:10C8A0005FEDB70A002E7FF404AC5FEDB89A1FED80
:10C8B000B81A63EEA97AB7EE005AA7EEA31A04F5E8
:10C8C000055808F12800B0EE040A21EE237AF0EEB4
:10C8D000452AE7EE002A04F5055A0AF12C0CD0EDA2
:10C8E000006A8CED007AE7EE072AF0EE661AD0EEC9
:10C8F000891A85EE229ADDED180A8CED029AB8EEBF
:10C90000606A10EE906A8CED010A81EE862A002E94
:10C9100000F0E08003F001070BF10A015A1EDCED84
:10C92000035AF9EC014ADCED043A76EE826A20EE15
:10C93000654AF1EE479AA4EEA64AA9EEA54A34EE5E
:10C94000638A29EE083AE7EE035AE7EE253AB0EE9D
:10C95000651AB0EE635A94EEA65AF0EE631AE5EE4D
:10C96000283AA7EE031AE7EE251AFDEEE30ACCED0E
:10C97000041A10EE90EA8CED031A0EF10105F0EEA8
:10C98000417A05F30F04F0EE615AABF80240002B38
:10C9900000F0A080B7B3F9EC013A76EE826A20EE9F
:10C9A000410AF0EE414AA3EEA60A013A551CB0EE48
:10C9B000618AA9EE810A30EE616A29EE064AE7EE45
:10C9C000044AA7EE248AF0EE647AB0EE483A93EE79
:10C9D000A63AF0EE485AA3EE288AE7EE047AE7EE8C
:10C9E000245ABDEEC81ACCED045A11EE103ACCED23
:10C9F000037A03F1010606F30F0721F8047C0BF11B
:10CA00000E0167D0F0EE042AF9EC010A76EE821AE4
:10CA100022EEE75A71EE826AA0EEA15A8B46023AE4
:10CA2000571CA9EEA75A35EE650A69EE003AE7EE03
:10CA3000237AE7EE275AB0EE676AB0EE655AA7EEA2
:10CA4000236AA7EE275A8CED036A8CED045AB9ECE1
:10CA5000014A62EEC67AB0EE463AE4EE267AF0EE8D
:10CA6000654AE9EE867AD0EEA14A37EEC51AE4EEC1
:10CA7000A85A69EE012AFDEEE55AA7EE223A15EE14
:10CA8000908AA7EE035A08F1010A0AF30F0EF0EE9E
:10CA9000431AF0EE450AD4EE260A21F804ECF0EE33
:10CAA000455AA0EEA85AE7EE221AE7EE035ABDEE69
:10CAB000C50ACCED045A10EE105ACCED031A05F15C
:10CAC000010404F30F032BF8043BF0EE617A0BF141
:10CAD000040197D1C0ED006A0BB0BDEC048BBDE83A
:10CAE000F08F95F824200127275412B942F21C1028
:10CAF000275404F5045E04F5035C0EF108090CF1FB
:10CB00003C082B684FF07E51C9F80010C8F800307F
:10CB1000FEF7F3BFDFEDBA0AFFF763B9F7EE005A8D
:10CB2000FFF72CB99DED059ADFEDB64AF2EE029AB9
:10CB300039EE695AB4EEE45AF1EE10FA00F1F380DE
:10CB40009FEDB17AB4EEC75AF1EE10FA40F33E8190
:10CB50001D46FF2104F5045303F10C0EAB4E9EF865
:10CB6000100006EB81020AEB850AD2ED002A9AED4D
:10CB7000002A002800F0058122EE821ADFEDA45A77
:10CB8000DEED003A21EE250AF2EE087A60EE272A61
:10CB9000B0EE002AE2EE823AB7EE005AF4EEC53A61
:10CBA000F1EE10FACEED003AC0F2C48000259FED00
:10CBB000999A9FED936A8EF81050B0EE457AF0EE98
:10CBC000453AFFEE001AF7EE004A74EEC76AE8EE47
:10CBD000268A0026A0EE856A9FED8F8AE8EEA13AAC
:10CBE000F0EE498AE0EE888A20EE867AF0EE635A0B
:10CBF00060EE870AB0EE688AF0EE609ACEED030A26
:10CC0000CEED003ACEED013ACEED028AFFF795B9AE
:10CC10009DED080AF1EE086AF0EE007AE0EE667A21
:10CC2000F5EEC07AF1EE10FA00F1C480F7EE001ACA
:10CC3000F4EE617AF1EE10FAD8BFF0EE671A002B2D
:10CC40004CD095F82010002940F0BD80D6F8108017
:10CC500095F8222004F2C45ECEF80080002A40F04D
:10CC6000AE80D6F8189043E042F2F400235C002B2B
:10CC70007EF48DAF1346FEF7AFBF0890FFF745B8BF
:10CC80009FED5F9AFFF71EB89FED5D6AFFF7BEB894
:10CC90009FED5B4AFFF717B9604890F800E008F194
:10CCA000200CE6457EF478AF5D49FEF77DBF00219C
:10CCB000FEF77ABF95F821002BB318BB04F5035E8D
:10CCC000D6F814C095F8201095F822209FED4C7AE4
:10CCD000CEF814C0F7EE001AFFF729B804F2C450DA
:10CCE0004FF0000995F8201095F82220C0F8009028
:10CCF00004F5B96C95F82100CCF80090B7EE007AF5
:10CD0000FFF715B8184604F50359B7EE007A4FF04F
:10CD1000804895F8201095F82220C9F81480F0EE8C
:10CD2000471AFFF704B81D46194613E74FF00008ED
:10CD3000FEF720BF23EEA33A75EE639A9FED394AC2
:10CD40009FED399A23EE037A29EEA96AA7EE049A99
:10CD500073EEE31A35EE465AF5EEC01AF1EE10FA0C
:10CD60007FF731AFDFED318A33E718989FED303A26
:10CD7000431EF0EE698AF0EE483AB0EE659AFFF78E
:10CD8000F2B8DEED003A9FED273A9FED279A9FED2E
:10CD90001C4AF7EE009A63EEA34A79EEE36A24EEAA
:10CDA000A47A26EEA66AA7EE039A39EEC65A74EE66
:10CDB000631AD1E7DFED121A002B8FD041E74FF055
:10CDC00000091A4694E74FF0000841E735EE066A7D
:10CDD000FDEEC61AB8EEE11A11EE901A76EE415A3F
:10CDE00025EE800AFDEEC07A17EE905AB2E6F0EE1C
:10CDF000698AF0EE483AB0EE659AFFF750BB00BF83
:10CE000000000000000000C30000FE4224E503080B
:10CE100051969639D1229B3E0AD7233DFF7F0008C9
:10CE2000007000089A99993EA69B443B9A99193F35
:10CE300000FEFFC62DE9F0070A9BD1ED007A04EE53
:10CE4000103AB6EE007AF8EE446AF4EEC77AB7EE1E
:10CE5000006AF1EE10FA86EE260A00F3EB80DFEDB1
:10CE6000770A27EEA01AFCEEC11A11EE906A92ED35
:10CE7000002AD0ED017AD0F80080F1EE002AB4EE5D
:10CE8000E22AF1EE10FAD4BFF0EE424AF0EE624A26
:10CE900034EEE73A03F1FF3923EE000A002B00F0ED
:10CEA000C2800899DFED665AF1EC013A9FED656AA0
:10CEB000654ADFED666A099B33EEA55A08EB060466
:10CEC00025EE064A09F0010CBCEEC47A17EE107A82
:10CED00004EB871A4FEA4A274FEADA5500EE907AB8
:10CEE00002EB850A9AED001ADAED011AB8EE602A13
:10CEF00071EEC12A62EE264A09F1FF35A4EEA21AAC
:10CF000027EE813A77EE807AA3EC013AB9F1000F6F
:10CF100000F08680BCF1000F29D0F1EC013A73EEED
:10CF2000A55A344425EE866A013DBCEEC65A15EE7C
:10CF300010CA04EB8C1A4FEA4A2C4FEADA5704EE77
:10CF400010CA02EB870A9AED007ADAED010AB8EE10
:10CF5000441A70EEC71A61EE266A6F1CA6EEA17A1B
:10CF600027EE872A77EE807AA3EC012A58D0F1ECDD
:10CF7000012ADFED334A9FED333A9FED346A72EEBA
:10CF8000A43A04EB060A63EE835A0AEB0604BCEEED
:10CF9000E55A37EE807A15EE107A0AEB871C4FEAD5
:10CFA0004C2700EE907A4FEADC5A02EB8A0C9CED9B
:10CFB000001A9CED014AF8EE601A74EE416A21EE07
:10CFC000862A023DA2EE261A67EE812A77EE007AC3
:10CFD000E3EC012AF1EC013A73EEA44A24EE833A21
:10CFE000FCEEC35A15EE907A04EB871C4FEADC5A2C
:10CFF0004FEA4C2C05EE10CA02EB8A0ADAED000A61
:10D000009AED011AB8EE454A71EE601A24EE066AEE
:10D010006F1CE6EE210A27EE207AA3EC017AA6D156
:10D02000B04409FB0688C0F80080C0ED017ABDE875
:10D03000F00770474FF0004619E700BF0000804F2F
:10D04000000000420000804CF0C402080000802F65
:10D050002DE9F0070A9CD1ED007A099B089903EEAF
:10D06000904AB6EE007AF8EE636AF4EEC77AB7EE4D
:10D07000006AF1EE10FA804686EE260A00F3C380BD
:10D08000DFED640A27EEA01AFCEEC11A11EE90CA79
:10D0900092ED002A98ED017AD8F80000F1EE002A0E
:10D0A000B4EEE22AF1EE10FAD4BFF0EE424AF0EE0E
:10D0B000624A34EEC73A04F1FF3923EE000A002C2D
:10D0C00000F0A48019F0010F05464E46524C5AD08C
:10D0D000F1EC015A9FED514ADFED513A9FED515A63
:10D0E000F3EC017A35EE846A00EB0C0566EE230A58
:10D0F00009F1FF36BCEEE01A11EE107A05EB871A43
:10D100004FEA4A274FEADA5201EE907A04EB820A9C
:10D110009AED002ADAED012AF8EE614A32EEC23ABF
:10D1200064EE856AA6EE832AE7EE027A37EE007A8D
:10D1300043ED017A27E0B1EC017AF3EC017A37EEA6
:10D14000055A36EE807A65EE255A023EFCEEE53A47
:10D1500013EE902A05EB82174FEAD75A7F0201EEB1
:10D16000907A04EB8A0ADAED000A9AED011AB8EE19
:10D17000612A71EE602A22EE066AE6EE220AE6EEE7
:10D18000A07A43ED017AB1EC014A9FED245ADFED1C
:10D19000245A9FED246A74EE053A05EB0C0A63EEFF
:10D1A000A57A0AEB0C05FCEEE70A1A4610EE907A17
:10D1B0000AEB871A4FEA4A274FEADA5301EE107A50
:10D1C00004EB830ADAED001A9AED012AF2EC012A47
:10D1D000F8EE414A32EE613A64EE866A1346E6EEB4
:10D1E000831A77EE006AE7EE212A42ED012A002E2B
:10D1F000A1D1604409FB0C00C8F80000C8ED016A29
:10D20000BDE8F00770474FF0004C41E7F0EE476A89
:10D21000F2E700BF0000804FF0C4020800000042A7
:10D220000000804C0000802F2DE9F003099BD1ED18
:10D23000007A07EE103AB6EE000AF8EE476AF4EE0E
:10D24000C07AF7EE005AF1EE10FAC5EEA60A00F326
:10D25000A9809FED561A67EE811ABCEEE12A12EE04
:10D26000105AD2ED002AD0ED017A0268B1EE003AF0
:10D27000F4EEC32AF1EE10FAD4BFB0EE626AB0EE5B
:10D28000436A76EE673A03F1FF3C23EEA04A002B97
:10D2900000F0828005EB02084FEA4824444ADFEDA3
:10D2A000454A089B4FEAD85105EE104A02EB810629
:10D2B00096ED007AD6ED016AB8EE450A76EEC75AC9
:10D2C00060EE240A08EB0501A0EEA57A0CF0010639
:10D2D0000CF1FF3427EE871A77EE847AA3EC011A5B
:10D2E000BCF1000F56D0E6B14FEA4129CF0D01EE57
:10D2F000909A02EB870797ED002AD7ED012AB8EE46
:10D30000613A32EEC26A63EE243A013CA3EE862A09
:10D31000661C294467EE824A77EE847AE3EC014A80
:10D3200038D04FEA412905EE109ACF0D02EB87075E
:10D33000D7ED006A97ED010A9FED1E7AF8EE450AD7
:10D3400070EE665A20EE871A2944E1EE256A4FEA0C
:10D350004129CF0D02EE109A67EEA61A02EB87075D
:10D36000E3EC011AD7ED002A97ED013AB8EE426AD4
:10D3700073EE623A66EE074A37EE845AE4EEA32A69
:10D38000023C671C294465EE226A75EE047AE3ECE0
:10D39000016AC6D10CFB05820260C0ED017ABDE8CE
:10D3A000F00370474FF000455BE700BF0000804F7F
:10D3B000F0C402080000802F2DE9F00F0B9CD1ED86
:10D3C000007A0A9B04EE104AB6EE007AF8EE446A40
:10D3D000F4EEC77AB7EE006AF1EE10FA86EE260A8E
:10D3E00000F39080DFED4A0A27EEA01AFCEEC11A86
:10D3F00011EE906A92ED002A90ED017A0768F1EE45
:10D40000002AB4EEE22AF1EE10FAD4BFF0EE425A4E
:10D41000F0EE625A35EEC73A04F1FF3C63EE003A93
:10D42000002C72D037441CF0010F3C466546394948
:10D4300037D04FEA4729FA0D05EE109A01EB820525
:10D4400095ED000A95ED016ADFED334AF3EC017AC0
:10D45000B8EE454A76EE400A24EE241A0CF1FF3568
:10D46000A1EE200ABC19E7EE007A37EE237A43EDED
:10D47000017A16E004EE10BAD9ED000A99ED015ACE
:10D48000F3EC017AB8EE441A35EE607A61EE251AB3
:10D49000023DE1EE870A36EEA37AE6EEA07A43ED8E
:10D4A000017A4FEA44284FEAD45A01EE908A01EB00
:10D4B0008A0B9BED002ADBED012ADFED175AB8EE4F
:10D4C000613A72EEC26A23EE250A1A46A0EE262AB7
:10D4D0003444E30DF2EC014AE7EE024A01EB830922
:10D4E0004FEA442B1346344477EE236A42ED014A57
:10D4F000002DBFD10CFB06770760C0ED016ABDE8C7
:10D50000F00F70474FF0004674E7F0EE476AF3E71C
:10D510000000804FF0C402080000802F2DE9F00FBA
:10D520000B9CD1ED007A089D0A99D3ED014A05EED6
:10D53000104AB6EE007AF8EE456AF4EEC77AF7EED6
:10D54000005AF1EE10FA85EEA60A9946D3ED006A6C
:10D5500000F3C480DFED650A27EEA01AFCEEC11AC5
:10D5600011EE90CA92ED002AD0ED017A0368B1EE77
:10D57000006AB4EEC62AF1EE10FAD4BFB0EE424A09
:10D58000B0EE464A74EE672A22EE800A002D00F0C3
:10D59000A280012202FA05F603EE906AFAEEEB3A57
:10D5A00004F1FF3A002C00F09C801AF0010F1C4699
:10D5B00055464F4A4FD076EEA44A9FED4E5A9FED06
:10D5C0004E7ADFED4E5AA3EEA45A03EB0C040AF197
:10D5D000FF35F0EE664A65EE076AFCEEE60A10EEED
:10D5E000907A04EB87184FEA48264FEAD85B01EEA1
:10D5F000106A02EB8B07D7ED001A97ED012AB8EEFF
:10D60000416A1CE073EE266A023DA3EEA65AF0EED4
:10D61000434A25EE255AFCEEC55A15EE908A04EBD6
:10D62000881B4FEA4B274FEADB5607EE107A02EBD6
:10D630008608D8ED001A98ED012AF8EE475A32EE26
:10D64000614A66EE252AE2EE841A67EEA16A77EE59
:10D65000807AE1EC016A9FED275ADFED275A9FEDB2
:10D66000276A36EEA43AB0EE457AA3EE837A04EB4D
:10D670000C0B0BEB0C0467EE254AFCEEE40A10EEF3
:10D68000906A0BEB86177E024FEAD75801EE106ABC
:10D6900002EB880BDBED001A9BED012AB8EE414A44
:10D6A00072EE612A24EE063AE3EE221A27EEA13A40
:10D6B00077EE807AA1EC013A002DA3D163440AFBF6
:10D6C0000C330360C0ED017A89ED003AC9ED016ABF
:10D6D000BDE8F00F7047DFED0A3A61E74FF0004C0C
:10D6E00040E7B0EE663AF0EE646AEAE70000804F89
:10D6F000F0C40208000000420000804C0000802FAF
:10D70000000000002DE9F00F0B9CD1ED007A089D80
:10D710000A99D3ED014A05EE104AB6EE007AF8EE0A
:10D72000456AF4EEC77AF7EE005AF1EE10FA85EE8C
:10D73000A60A9946D3ED006A00F3DF80DFED730A95
:10D7400027EEA01AFCEEC11A11EE908A92ED002A83
:10D75000D0ED017A0368B1EE006AB4EEC62AF1EEAC
:10D7600010FAD4BFB0EE424AB0EE464A74EE672AD1
:10D7700022EE800A002D00F0BD80012202FA05F69B
:10D7800003EE906AFAEEEB3A04F1FF3A002C00F057
:10D79000B7801AF0010F1D4656465D4C61D076EEFB
:10D7A000A44A9FED5C3ADFED5C5A9FED5C5AF1ECC8
:10D7B000010AA3EEA43A03EB08050AF1FF36F0EEE6
:10D7C000664A63EE256ABCEEE61A11EE107A05EBA6
:10D7D000871B4FEA4B224FEADB5C01EE902A04EBF9
:10D7E0008C0797ED002A97ED016AB8EE614A76EE54
:10D7F000422A24EE057AA7EE222A67EE826A77EEA5
:10D80000807A30EEA63A01ED013A2AE077EE266AF8
:10D81000B1EC012AA3EEA65A023E25EE255AFCEEF3
:10D82000C55A15EE902A05EB821C4FEA4C274FEAA9
:10D83000DC5B07EE107A04EB8B0C9CED004A9CED50
:10D84000016AB8EE473A76EE442A23EE011AA1EEB9
:10D85000224A67EE846A77EE807A72EE260A41EDFC
:10D86000010A9FED2C5ADFED2C5A9FED2C1A76EE13
:10D87000A40AF0EE454AE3EEA04A05EB080707EBE1
:10D8800008050A4664EEA51AB2EC012ABCEEE16A6C
:10D89000114616EE10CA07EB8C1B4FEA4B2C4FEAD1
:10D8A000DB5704EE10CA04EB870B9BED007A9BED6F
:10D8B000013AF8EE442A73EE470A62EE814AA4EE7A
:10D8C000A07A27EE877A77EE807A72EE071AF0EE6A
:10D8D000474A42ED011A002E98D143440AFB08330F
:10D8E0000360C0ED017A89ED007AC9ED016ABDE8F7
:10D8F000F00F7047DFED0A3A46E74FF0004825E7A2
:10D90000B0EE667AF0EE646AEAE700BF0000804F8E
:10D91000F0C40208000000420000804C0000802F8C
:10D92000000000002DE9F00F2DED048B90B091ED7B
:10D93000007A1F9D1C9E1E9C029303EE905AF6EEE9
:10D94000006AF8EE637AB4EEE67AB7EE006AF1EEBA
:10D9500010FA86EE270AD3ED013A93ED006A00F340
:10D960005081DFEDAC0A27EE201AFCEEC11A11EE51
:10D97000907A92ED002AD0ED012A91ED015A0368C8
:10D980000497F1EE005AB4EEE52AF1EE10FAC8BFA2
:10D99000B0EE652A32EE623AF6EE004A23EE004A15
:10D9A000B4EEE45AF1EE10FACDED0A2A8DED0D4AEF
:10D9B000079300F323819FED978A65EE088ABCEEFA
:10D9C000E89A19EE107AD2ED019AD0ED037AD1EDF2
:10D9D000020A81680597B1EE007AF4EEC79AF1EE7B
:10D9E00010FAC8BFF0EE479A79EEE76AB6EE001A71
:10D9F00066EE801AF4EEC10AF1EE10FACDED0B7A64
:10DA0000CDED0E1A089100F3F6809FED822A60EEAC
:10DA1000822ABCEEE25A15EE107A92ED023AD0ED6F
:10DA2000054A02690697F1EE005AB4EEE53AF1EEC6
:10DA300010FAC8BFB0EE653A33EE644ACDED0C4A39
:10DA400024EE000A09928DED0F0A002E00F0D0801E
:10DA50004FF0010808FA06F609EE906AFAEEEB9A22
:10DA60006A1E002D00F0D080059D069B0193DDF815
:10DA700010B09DED0D9ADDED0E8A9DED0F8ADDF85B
:10DA80001CA0DDED0A4ADDF820909DED0B5ADDF873
:10DA90002480DDED0C5A604B0390AC4601E0B0EE03
:10DAA000676ADFED5E6A9FED5E7A01999FED5D0A20
:10DAB000F4EC011A76EE233AF0EE660AE9EEA30AD8
:10DAC0000AEB0B0609EB0C05414420EE871A013ADC
:10DAD000BCEEC12AB0EE661A12EE100A06EB8019EF
